{
  "_format": "hh-sol-artifact-1",
  "contractName": "ICO",
  "sourceName": "contracts/ICO/ICO.sol",
  "abi": [
    {
      "inputs": [
        {
          "internalType": "address",
          "name": "_token",
          "type": "address"
        },
        {
          "internalType": "address",
          "name": "_ethUsdPriceFeedAddress",
          "type": "address"
        },
        {
          "internalType": "address",
          "name": "_usdtUsdPriceFeedAddress",
          "type": "address"
        },
        {
          "internalType": "address",
          "name": "_usdcUsdPriceFeedAddress",
          "type": "address"
        },
        {
          "internalType": "address",
          "name": "_btcUsdPriceFeedAddress",
          "type": "address"
        },
        {
          "internalType": "address",
          "name": "_scrUsdPriceFeedAddress",
          "type": "address"
        },
        {
          "internalType": "address",
          "name": "_usdtAddress",
          "type": "address"
        },
        {
          "internalType": "address",
          "name": "_usdcAddress",
          "type": "address"
        },
        {
          "internalType": "address",
          "name": "_wbtcAddress",
          "type": "address"
        },
        {
          "internalType": "address",
          "name": "_scrAddress",
          "type": "address"
        }
      ],
      "stateMutability": "nonpayable",
      "type": "constructor"
    },
    {
      "inputs": [
        {
          "internalType": "string",
          "name": "asset",
          "type": "string"
        },
        {
          "internalType": "uint256",
          "name": "amount",
          "type": "uint256"
        },
        {
          "internalType": "uint256",
          "name": "minimum",
          "type": "uint256"
        }
      ],
      "name": "AmountBelowMinimum",
      "type": "error"
    },
    {
      "inputs": [
        {
          "internalType": "string",
          "name": "asset",
          "type": "string"
        },
        {
          "internalType": "uint256",
          "name": "actualSlippageBps",
          "type": "uint256"
        },
        {
          "internalType": "uint256",
          "name": "maxSlippageBps",
          "type": "uint256"
        }
      ],
      "name": "DefaultSlippageExceeded",
      "type": "error"
    },
    {
      "inputs": [],
      "name": "EnforcedPause",
      "type": "error"
    },
    {
      "inputs": [],
      "name": "ExpectedPause",
      "type": "error"
    },
    {
      "inputs": [
        {
          "internalType": "address",
          "name": "token",
          "type": "address"
        },
        {
          "internalType": "uint256",
          "name": "requested",
          "type": "uint256"
        },
        {
          "internalType": "uint256",
          "name": "available",
          "type": "uint256"
        }
      ],
      "name": "InsufficientBalance",
      "type": "error"
    },
    {
      "inputs": [
        {
          "internalType": "string",
          "name": "what",
          "type": "string"
        }
      ],
      "name": "InvalidAddress",
      "type": "error"
    },
    {
      "inputs": [],
      "name": "InvalidAmount",
      "type": "error"
    },
    {
      "inputs": [],
      "name": "InvalidBeneficiary",
      "type": "error"
    },
    {
      "inputs": [],
      "name": "InvalidPaymentMethod",
      "type": "error"
    },
    {
      "inputs": [],
      "name": "NoEthToWithdraw",
      "type": "error"
    },
    {
      "inputs": [
        {
          "internalType": "address",
          "name": "token",
          "type": "address"
        }
      ],
      "name": "NoTokensToWithdraw",
      "type": "error"
    },
    {
      "inputs": [
        {
          "internalType": "string",
          "name": "asset",
          "type": "string"
        }
      ],
      "name": "OracleInvalidPrice",
      "type": "error"
    },
    {
      "inputs": [
        {
          "internalType": "string",
          "name": "asset",
          "type": "string"
        }
      ],
      "name": "OraclePriceStale",
      "type": "error"
    },
    {
      "inputs": [
        {
          "internalType": "string",
          "name": "asset",
          "type": "string"
        }
      ],
      "name": "OraclePriceTooOld",
      "type": "error"
    },
    {
      "inputs": [
        {
          "internalType": "string",
          "name": "asset",
          "type": "string"
        }
      ],
      "name": "OracleRoundIncomplete",
      "type": "error"
    },
    {
      "inputs": [
        {
          "internalType": "address",
          "name": "owner",
          "type": "address"
        }
      ],
      "name": "OwnableInvalidOwner",
      "type": "error"
    },
    {
      "inputs": [
        {
          "internalType": "address",
          "name": "account",
          "type": "address"
        }
      ],
      "name": "OwnableUnauthorizedAccount",
      "type": "error"
    },
    {
      "inputs": [
        {
          "internalType": "uint256",
          "name": "requested",
          "type": "uint256"
        },
        {
          "internalType": "uint256",
          "name": "maxAllowed",
          "type": "uint256"
        }
      ],
      "name": "PriceDeviationToleranceTooHigh",
      "type": "error"
    },
    {
      "inputs": [
        {
          "internalType": "string",
          "name": "asset",
          "type": "string"
        },
        {
          "internalType": "uint256",
          "name": "deviationBps",
          "type": "uint256"
        },
        {
          "internalType": "uint256",
          "name": "maxDeviationBps",
          "type": "uint256"
        }
      ],
      "name": "PriceDeviationTooHigh",
      "type": "error"
    },
    {
      "inputs": [],
      "name": "ReentrancyGuardReentrantCall",
      "type": "error"
    },
    {
      "inputs": [
        {
          "internalType": "string",
          "name": "asset",
          "type": "string"
        },
        {
          "internalType": "uint256",
          "name": "minExpected",
          "type": "uint256"
        },
        {
          "internalType": "uint256",
          "name": "actualTokens",
          "type": "uint256"
        }
      ],
      "name": "SlippageExceeded",
      "type": "error"
    },
    {
      "inputs": [
        {
          "internalType": "uint256",
          "name": "requested",
          "type": "uint256"
        },
        {
          "internalType": "uint256",
          "name": "maxAllowed",
          "type": "uint256"
        }
      ],
      "name": "SlippageToleranceTooHigh",
      "type": "error"
    },
    {
      "inputs": [],
      "name": "TokenTransferFailed",
      "type": "error"
    },
    {
      "inputs": [],
      "name": "ZeroMint",
      "type": "error"
    },
    {
      "anonymous": false,
      "inputs": [
        {
          "indexed": true,
          "internalType": "address",
          "name": "token",
          "type": "address"
        },
        {
          "indexed": true,
          "internalType": "address",
          "name": "to",
          "type": "address"
        },
        {
          "indexed": false,
          "internalType": "uint256",
          "name": "amount",
          "type": "uint256"
        }
      ],
      "name": "EmergencyErc20Withdrawn",
      "type": "event"
    },
    {
      "anonymous": false,
      "inputs": [
        {
          "indexed": true,
          "internalType": "address",
          "name": "token",
          "type": "address"
        },
        {
          "indexed": true,
          "internalType": "address",
          "name": "to",
          "type": "address"
        },
        {
          "indexed": false,
          "internalType": "uint256",
          "name": "amount",
          "type": "uint256"
        }
      ],
      "name": "Erc20Withdrawn",
      "type": "event"
    },
    {
      "anonymous": false,
      "inputs": [
        {
          "indexed": true,
          "internalType": "address",
          "name": "to",
          "type": "address"
        },
        {
          "indexed": false,
          "internalType": "uint256",
          "name": "amount",
          "type": "uint256"
        }
      ],
      "name": "EthWithdrawn",
      "type": "event"
    },
    {
      "anonymous": false,
      "inputs": [
        {
          "indexed": true,
          "internalType": "address",
          "name": "by",
          "type": "address"
        }
      ],
      "name": "IcoPaused",
      "type": "event"
    },
    {
      "anonymous": false,
      "inputs": [
        {
          "indexed": true,
          "internalType": "address",
          "name": "by",
          "type": "address"
        }
      ],
      "name": "IcoUnpaused",
      "type": "event"
    },
    {
      "anonymous": false,
      "inputs": [
        {
          "indexed": false,
          "internalType": "string",
          "name": "asset",
          "type": "string"
        },
        {
          "indexed": false,
          "internalType": "uint256",
          "name": "newMinAmount",
          "type": "uint256"
        }
      ],
      "name": "MinPurchaseUpdated",
      "type": "event"
    },
    {
      "anonymous": false,
      "inputs": [
        {
          "indexed": true,
          "internalType": "address",
          "name": "previousOwner",
          "type": "address"
        },
        {
          "indexed": true,
          "internalType": "address",
          "name": "newOwner",
          "type": "address"
        }
      ],
      "name": "OwnershipTransferred",
      "type": "event"
    },
    {
      "anonymous": false,
      "inputs": [
        {
          "indexed": false,
          "internalType": "address",
          "name": "account",
          "type": "address"
        }
      ],
      "name": "Paused",
      "type": "event"
    },
    {
      "anonymous": false,
      "inputs": [
        {
          "indexed": false,
          "internalType": "uint256",
          "name": "newMaxDeviationBps",
          "type": "uint256"
        }
      ],
      "name": "PriceDeviationProtectionUpdated",
      "type": "event"
    },
    {
      "anonymous": false,
      "inputs": [
        {
          "indexed": false,
          "internalType": "string",
          "name": "asset",
          "type": "string"
        },
        {
          "indexed": false,
          "internalType": "uint256",
          "name": "price",
          "type": "uint256"
        },
        {
          "indexed": false,
          "internalType": "uint256",
          "name": "timestamp",
          "type": "uint256"
        }
      ],
      "name": "RecordedPriceUpdated",
      "type": "event"
    },
    {
      "anonymous": false,
      "inputs": [
        {
          "indexed": true,
          "internalType": "address",
          "name": "user",
          "type": "address"
        },
        {
          "indexed": false,
          "internalType": "string",
          "name": "asset",
          "type": "string"
        },
        {
          "indexed": false,
          "internalType": "uint256",
          "name": "expectedTokens",
          "type": "uint256"
        },
        {
          "indexed": false,
          "internalType": "uint256",
          "name": "actualTokens",
          "type": "uint256"
        },
        {
          "indexed": false,
          "internalType": "uint256",
          "name": "slippageBps",
          "type": "uint256"
        }
      ],
      "name": "SlippageProtectionTriggered",
      "type": "event"
    },
    {
      "anonymous": false,
      "inputs": [
        {
          "indexed": false,
          "internalType": "uint256",
          "name": "newMaxSlippageBps",
          "type": "uint256"
        }
      ],
      "name": "SlippageProtectionUpdated",
      "type": "event"
    },
    {
      "anonymous": false,
      "inputs": [
        {
          "indexed": true,
          "internalType": "address",
          "name": "purchaser",
          "type": "address"
        },
        {
          "indexed": true,
          "internalType": "address",
          "name": "beneficiary",
          "type": "address"
        },
        {
          "indexed": true,
          "internalType": "string",
          "name": "paymentMethod",
          "type": "string"
        },
        {
          "indexed": false,
          "internalType": "uint256",
          "name": "paymentAmount",
          "type": "uint256"
        },
        {
          "indexed": false,
          "internalType": "uint256",
          "name": "tokensReceived",
          "type": "uint256"
        },
        {
          "indexed": false,
          "internalType": "uint256",
          "name": "usdValue",
          "type": "uint256"
        }
      ],
      "name": "TokensPurchased",
      "type": "event"
    },
    {
      "anonymous": false,
      "inputs": [
        {
          "indexed": false,
          "internalType": "address",
          "name": "account",
          "type": "address"
        }
      ],
      "name": "Unpaused",
      "type": "event"
    },
    {
      "inputs": [],
      "name": "BPS_BASE",
      "outputs": [
        {
          "internalType": "uint256",
          "name": "",
          "type": "uint256"
        }
      ],
      "stateMutability": "view",
      "type": "function"
    },
    {
      "inputs": [],
      "name": "MAX_PRICE_STALENESS",
      "outputs": [
        {
          "internalType": "uint256",
          "name": "",
          "type": "uint256"
        }
      ],
      "stateMutability": "view",
      "type": "function"
    },
    {
      "inputs": [],
      "name": "MAX_SLIPPAGE_BPS",
      "outputs": [
        {
          "internalType": "uint256",
          "name": "",
          "type": "uint256"
        }
      ],
      "stateMutability": "view",
      "type": "function"
    },
    {
      "inputs": [],
      "name": "TOKEN_RATE_USD",
      "outputs": [
        {
          "internalType": "uint256",
          "name": "",
          "type": "uint256"
        }
      ],
      "stateMutability": "view",
      "type": "function"
    },
    {
      "inputs": [
        {
          "internalType": "address",
          "name": "_beneficiary",
          "type": "address"
        },
        {
          "internalType": "uint256",
          "name": "_minTokensExpected",
          "type": "uint256"
        }
      ],
      "name": "buyTokensWithEth",
      "outputs": [],
      "stateMutability": "payable",
      "type": "function"
    },
    {
      "inputs": [
        {
          "internalType": "address",
          "name": "_beneficiary",
          "type": "address"
        }
      ],
      "name": "buyTokensWithEthNoProtection",
      "outputs": [],
      "stateMutability": "payable",
      "type": "function"
    },
    {
      "inputs": [
        {
          "internalType": "uint256",
          "name": "_amount",
          "type": "uint256"
        },
        {
          "internalType": "uint256",
          "name": "_minTokensExpected",
          "type": "uint256"
        }
      ],
      "name": "buyTokensWithScr",
      "outputs": [],
      "stateMutability": "nonpayable",
      "type": "function"
    },
    {
      "inputs": [
        {
          "internalType": "uint256",
          "name": "_amount",
          "type": "uint256"
        }
      ],
      "name": "buyTokensWithScrNoProtection",
      "outputs": [],
      "stateMutability": "nonpayable",
      "type": "function"
    },
    {
      "inputs": [
        {
          "internalType": "uint256",
          "name": "_amount",
          "type": "uint256"
        },
        {
          "internalType": "uint256",
          "name": "_minTokensExpected",
          "type": "uint256"
        }
      ],
      "name": "buyTokensWithUsdc",
      "outputs": [],
      "stateMutability": "nonpayable",
      "type": "function"
    },
    {
      "inputs": [
        {
          "internalType": "uint256",
          "name": "_amount",
          "type": "uint256"
        }
      ],
      "name": "buyTokensWithUsdcNoProtection",
      "outputs": [],
      "stateMutability": "nonpayable",
      "type": "function"
    },
    {
      "inputs": [
        {
          "internalType": "uint256",
          "name": "_amount",
          "type": "uint256"
        },
        {
          "internalType": "uint256",
          "name": "_minTokensExpected",
          "type": "uint256"
        }
      ],
      "name": "buyTokensWithUsdt",
      "outputs": [],
      "stateMutability": "nonpayable",
      "type": "function"
    },
    {
      "inputs": [
        {
          "internalType": "uint256",
          "name": "_amount",
          "type": "uint256"
        }
      ],
      "name": "buyTokensWithUsdtNoProtection",
      "outputs": [],
      "stateMutability": "nonpayable",
      "type": "function"
    },
    {
      "inputs": [
        {
          "internalType": "uint256",
          "name": "_amount",
          "type": "uint256"
        },
        {
          "internalType": "uint256",
          "name": "_minTokensExpected",
          "type": "uint256"
        }
      ],
      "name": "buyTokensWithWbtc",
      "outputs": [],
      "stateMutability": "nonpayable",
      "type": "function"
    },
    {
      "inputs": [
        {
          "internalType": "uint256",
          "name": "_amount",
          "type": "uint256"
        }
      ],
      "name": "buyTokensWithWbtcNoProtection",
      "outputs": [],
      "stateMutability": "nonpayable",
      "type": "function"
    },
    {
      "inputs": [
        {
          "internalType": "uint256",
          "name": "_usdAmount",
          "type": "uint256"
        }
      ],
      "name": "calculateTokens",
      "outputs": [
        {
          "internalType": "uint256",
          "name": "",
          "type": "uint256"
        }
      ],
      "stateMutability": "view",
      "type": "function"
    },
    {
      "inputs": [
        {
          "internalType": "address",
          "name": "_tokenAddress",
          "type": "address"
        },
        {
          "internalType": "uint256",
          "name": "_amount",
          "type": "uint256"
        }
      ],
      "name": "emergencyWithdraw",
      "outputs": [],
      "stateMutability": "nonpayable",
      "type": "function"
    },
    {
      "inputs": [
        {
          "internalType": "uint256",
          "name": "_amount",
          "type": "uint256"
        }
      ],
      "name": "getBtcUsdPrice",
      "outputs": [
        {
          "internalType": "uint256",
          "name": "",
          "type": "uint256"
        }
      ],
      "stateMutability": "view",
      "type": "function"
    },
    {
      "inputs": [],
      "name": "getCurrentPrices",
      "outputs": [
        {
          "internalType": "uint256",
          "name": "ethPrice",
          "type": "uint256"
        },
        {
          "internalType": "uint256",
          "name": "usdtPrice",
          "type": "uint256"
        },
        {
          "internalType": "uint256",
          "name": "usdcPrice",
          "type": "uint256"
        },
        {
          "internalType": "uint256",
          "name": "btcPrice",
          "type": "uint256"
        },
        {
          "internalType": "uint256",
          "name": "scrPrice",
          "type": "uint256"
        }
      ],
      "stateMutability": "view",
      "type": "function"
    },
    {
      "inputs": [
        {
          "internalType": "uint256",
          "name": "_amount",
          "type": "uint256"
        }
      ],
      "name": "getEthUsdPrice",
      "outputs": [
        {
          "internalType": "uint256",
          "name": "",
          "type": "uint256"
        }
      ],
      "stateMutability": "view",
      "type": "function"
    },
    {
      "inputs": [],
      "name": "getPurchaseStatistics",
      "outputs": [
        {
          "internalType": "uint256",
          "name": "totalUsdValueEth",
          "type": "uint256"
        },
        {
          "internalType": "uint256",
          "name": "totalUsdValueUsdt",
          "type": "uint256"
        },
        {
          "internalType": "uint256",
          "name": "totalUsdValueUsdc",
          "type": "uint256"
        },
        {
          "internalType": "uint256",
          "name": "totalUsdValueWbtc",
          "type": "uint256"
        },
        {
          "internalType": "uint256",
          "name": "totalUsdValueScr",
          "type": "uint256"
        },
        {
          "internalType": "uint256",
          "name": "totalVolumeEth",
          "type": "uint256"
        },
        {
          "internalType": "uint256",
          "name": "totalVolumeUsdt",
          "type": "uint256"
        },
        {
          "internalType": "uint256",
          "name": "totalVolumeUsdc",
          "type": "uint256"
        },
        {
          "internalType": "uint256",
          "name": "totalVolumeWbtc",
          "type": "uint256"
        },
        {
          "internalType": "uint256",
          "name": "totalVolumeScr",
          "type": "uint256"
        }
      ],
      "stateMutability": "view",
      "type": "function"
    },
    {
      "inputs": [
        {
          "internalType": "uint256",
          "name": "_amount",
          "type": "uint256"
        }
      ],
      "name": "getScrUsdPrice",
      "outputs": [
        {
          "internalType": "uint256",
          "name": "",
          "type": "uint256"
        }
      ],
      "stateMutability": "view",
      "type": "function"
    },
    {
      "inputs": [
        {
          "internalType": "uint256",
          "name": "_amount",
          "type": "uint256"
        }
      ],
      "name": "getUsdcUsdPrice",
      "outputs": [
        {
          "internalType": "uint256",
          "name": "",
          "type": "uint256"
        }
      ],
      "stateMutability": "view",
      "type": "function"
    },
    {
      "inputs": [
        {
          "internalType": "uint256",
          "name": "_amount",
          "type": "uint256"
        }
      ],
      "name": "getUsdtUsdPrice",
      "outputs": [
        {
          "internalType": "uint256",
          "name": "",
          "type": "uint256"
        }
      ],
      "stateMutability": "view",
      "type": "function"
    },
    {
      "inputs": [
        {
          "internalType": "string",
          "name": "",
          "type": "string"
        }
      ],
      "name": "lastRecordedPrices",
      "outputs": [
        {
          "internalType": "uint256",
          "name": "",
          "type": "uint256"
        }
      ],
      "stateMutability": "view",
      "type": "function"
    },
    {
      "inputs": [],
      "name": "maxPriceDeviationBps",
      "outputs": [
        {
          "internalType": "uint256",
          "name": "",
          "type": "uint256"
        }
      ],
      "stateMutability": "view",
      "type": "function"
    },
    {
      "inputs": [],
      "name": "maxSlippageBps",
      "outputs": [
        {
          "internalType": "uint256",
          "name": "",
          "type": "uint256"
        }
      ],
      "stateMutability": "view",
      "type": "function"
    },
    {
      "inputs": [],
      "name": "minEthPurchase",
      "outputs": [
        {
          "internalType": "uint256",
          "name": "",
          "type": "uint256"
        }
      ],
      "stateMutability": "view",
      "type": "function"
    },
    {
      "inputs": [],
      "name": "minScrPurchase",
      "outputs": [
        {
          "internalType": "uint256",
          "name": "",
          "type": "uint256"
        }
      ],
      "stateMutability": "view",
      "type": "function"
    },
    {
      "inputs": [],
      "name": "minUsdcPurchase",
      "outputs": [
        {
          "internalType": "uint256",
          "name": "",
          "type": "uint256"
        }
      ],
      "stateMutability": "view",
      "type": "function"
    },
    {
      "inputs": [],
      "name": "minUsdtPurchase",
      "outputs": [
        {
          "internalType": "uint256",
          "name": "",
          "type": "uint256"
        }
      ],
      "stateMutability": "view",
      "type": "function"
    },
    {
      "inputs": [],
      "name": "minWbtcPurchase",
      "outputs": [
        {
          "internalType": "uint256",
          "name": "",
          "type": "uint256"
        }
      ],
      "stateMutability": "view",
      "type": "function"
    },
    {
      "inputs": [],
      "name": "owner",
      "outputs": [
        {
          "internalType": "address",
          "name": "",
          "type": "address"
        }
      ],
      "stateMutability": "view",
      "type": "function"
    },
    {
      "inputs": [],
      "name": "pause",
      "outputs": [],
      "stateMutability": "nonpayable",
      "type": "function"
    },
    {
      "inputs": [],
      "name": "paused",
      "outputs": [
        {
          "internalType": "bool",
          "name": "",
          "type": "bool"
        }
      ],
      "stateMutability": "view",
      "type": "function"
    },
    {
      "inputs": [
        {
          "internalType": "string",
          "name": "_paymentMethod",
          "type": "string"
        },
        {
          "internalType": "uint256",
          "name": "_amount",
          "type": "uint256"
        }
      ],
      "name": "previewTokenPurchase",
      "outputs": [
        {
          "internalType": "uint256",
          "name": "tokensToReceive",
          "type": "uint256"
        },
        {
          "internalType": "uint256",
          "name": "usdValue",
          "type": "uint256"
        }
      ],
      "stateMutability": "view",
      "type": "function"
    },
    {
      "inputs": [
        {
          "internalType": "string",
          "name": "",
          "type": "string"
        }
      ],
      "name": "priceUpdateTimestamps",
      "outputs": [
        {
          "internalType": "uint256",
          "name": "",
          "type": "uint256"
        }
      ],
      "stateMutability": "view",
      "type": "function"
    },
    {
      "inputs": [],
      "name": "renounceOwnership",
      "outputs": [],
      "stateMutability": "nonpayable",
      "type": "function"
    },
    {
      "inputs": [],
      "name": "scr",
      "outputs": [
        {
          "internalType": "contract IERC20",
          "name": "",
          "type": "address"
        }
      ],
      "stateMutability": "view",
      "type": "function"
    },
    {
      "inputs": [],
      "name": "token",
      "outputs": [
        {
          "internalType": "contract IMintableToken",
          "name": "",
          "type": "address"
        }
      ],
      "stateMutability": "view",
      "type": "function"
    },
    {
      "inputs": [],
      "name": "tokenContract",
      "outputs": [
        {
          "internalType": "contract ERC20",
          "name": "",
          "type": "address"
        }
      ],
      "stateMutability": "view",
      "type": "function"
    },
    {
      "inputs": [
        {
          "internalType": "string",
          "name": "",
          "type": "string"
        }
      ],
      "name": "totalPurchasedByAsset",
      "outputs": [
        {
          "internalType": "uint256",
          "name": "",
          "type": "uint256"
        }
      ],
      "stateMutability": "view",
      "type": "function"
    },
    {
      "inputs": [],
      "name": "totalTokensSold",
      "outputs": [
        {
          "internalType": "uint256",
          "name": "",
          "type": "uint256"
        }
      ],
      "stateMutability": "view",
      "type": "function"
    },
    {
      "inputs": [
        {
          "internalType": "string",
          "name": "",
          "type": "string"
        }
      ],
      "name": "totalVolumeByAsset",
      "outputs": [
        {
          "internalType": "uint256",
          "name": "",
          "type": "uint256"
        }
      ],
      "stateMutability": "view",
      "type": "function"
    },
    {
      "inputs": [
        {
          "internalType": "address",
          "name": "newOwner",
          "type": "address"
        }
      ],
      "name": "transferOwnership",
      "outputs": [],
      "stateMutability": "nonpayable",
      "type": "function"
    },
    {
      "inputs": [],
      "name": "unpause",
      "outputs": [],
      "stateMutability": "nonpayable",
      "type": "function"
    },
    {
      "inputs": [
        {
          "internalType": "uint256",
          "name": "_minEth",
          "type": "uint256"
        },
        {
          "internalType": "uint256",
          "name": "_minUsdt",
          "type": "uint256"
        },
        {
          "internalType": "uint256",
          "name": "_minUsdc",
          "type": "uint256"
        },
        {
          "internalType": "uint256",
          "name": "_minWbtc",
          "type": "uint256"
        },
        {
          "internalType": "uint256",
          "name": "_minScr",
          "type": "uint256"
        }
      ],
      "name": "updateMinPurchase",
      "outputs": [],
      "stateMutability": "nonpayable",
      "type": "function"
    },
    {
      "inputs": [
        {
          "internalType": "uint256",
          "name": "_maxDeviationBps",
          "type": "uint256"
        }
      ],
      "name": "updatePriceDeviationProtection",
      "outputs": [],
      "stateMutability": "nonpayable",
      "type": "function"
    },
    {
      "inputs": [
        {
          "internalType": "string",
          "name": "_asset",
          "type": "string"
        },
        {
          "internalType": "uint256",
          "name": "_price",
          "type": "uint256"
        }
      ],
      "name": "updateRecordedPrice",
      "outputs": [],
      "stateMutability": "nonpayable",
      "type": "function"
    },
    {
      "inputs": [
        {
          "internalType": "uint256",
          "name": "_maxSlippageBps",
          "type": "uint256"
        }
      ],
      "name": "updateSlippageProtection",
      "outputs": [],
      "stateMutability": "nonpayable",
      "type": "function"
    },
    {
      "inputs": [],
      "name": "usdc",
      "outputs": [
        {
          "internalType": "contract IERC20",
          "name": "",
          "type": "address"
        }
      ],
      "stateMutability": "view",
      "type": "function"
    },
    {
      "inputs": [],
      "name": "usdt",
      "outputs": [
        {
          "internalType": "contract IERC20",
          "name": "",
          "type": "address"
        }
      ],
      "stateMutability": "view",
      "type": "function"
    },
    {
      "inputs": [],
      "name": "wbtc",
      "outputs": [
        {
          "internalType": "contract IERC20",
          "name": "",
          "type": "address"
        }
      ],
      "stateMutability": "view",
      "type": "function"
    },
    {
      "inputs": [
        {
          "internalType": "address",
          "name": "_tokenAddress",
          "type": "address"
        }
      ],
      "name": "withdrawErc20",
      "outputs": [],
      "stateMutability": "nonpayable",
      "type": "function"
    },
    {
      "inputs": [],
      "name": "withdrawEth",
      "outputs": [],
      "stateMutability": "nonpayable",
      "type": "function"
    },
    {
      "stateMutability": "payable",
      "type": "receive"
    }
  ],
  "bytecode": "0x6101e03462000b5757601f6200717838819003918201601f19168301916001600160401b0383118484101762000b5c578084926101409460405283398101031262000b57576200004f8162000b8e565b906200005e6020820162000b8e565b6200006c6040830162000b8e565b926200007b6060840162000b8e565b926200008a6080820162000b8e565b6200009860a0830162000b8e565b620000a660c0840162000b8e565b91620000b560e0850162000b8e565b9661010098620000d6610120620000ce8c890162000b8e565b970162000b8e565b96331562000b3e5760008054336001600160a01b0319821681178355604051620001849390926001600160a01b0316907f8be0079c531659141344cd1fd0a4f28419497f9722a3daafe3b4186f6b6457e09080a36001805560ff19600254166002556101f46003556103e860045566038d7ea4c68000600755620f424080600855600955612710600a55670de0b6b3a7640000600b5567bf738e77af2de03160208201526020815262000b72565b620001a36040516741f9b61e2facf2f260208201526020815262000b72565b620001c2604051671dc85053ca40ee8c60208201526020815262000b72565b6001600160a01b031697886200021f57620001f1604051677ef9a755b1d7698260208201526020815262000b72565b604051630b0f5aa160e11b81526020600482015260056024820152643a37b5b2b760d91b6044820152606490fd5b6200023e60405167183579394d26303d60208201526020815262000b72565b6200025d604051676fd55b4ebece10cd60208201526020815262000b72565b6200027c60405167be9983b1ba7ef01360208201526020815262000b72565b6001600160a01b03169081620002e057620002ab60405167136d19b1bf769f0b60208201526020815262000b72565b604051630b0f5aa160e11b815260206004820152600c60248201526b195d1a141c9a58d95199595960a21b6044820152606490fd5b620002ff604051674f59f1dcb917472860208201526020815262000b72565b6200031e60405167b82ebd31f4d67e0060208201526020815262000b72565b6200033d60405167641f378d499fc5d760208201526020815262000b72565b6001600160a01b03169182620003a2576200036c60405167d949d8ed5e17127c60208201526020815262000b72565b604051630b0f5aa160e11b815260206004820152600d60248201526c1d5cd91d141c9a58d951995959609a1b6044820152606490fd5b620003c160405167dc623e3eb32a6efb60208201526020815262000b72565b620003e060405167a1439ce77cccdf6760208201526020815262000b72565b620003ff60405167285b1492ae9e859b60208201526020815262000b72565b6001600160a01b0316928362000464576200042e60405167e59c828d495b306a60208201526020815262000b72565b604051630b0f5aa160e11b815260206004820152600d60248201526c1d5cd918d41c9a58d951995959609a1b6044820152606490fd5b62000483604051670ec9c12e9f66a01260208201526020815262000b72565b620004a26040516718dfb660a8bd1c1260208201526020815262000b72565b620004c160405167e7566667a9f8af3860208201526020815262000b72565b6001600160a01b031693846200052557620004f0604051678138ffaac546371260208201526020815262000b72565b604051630b0f5aa160e11b815260206004820152600c60248201526b189d18d41c9a58d95199595960a21b6044820152606490fd5b6200054460405167851471ddc4fbc38e60208201526020815262000b72565b6200056360405167a7578df321d9770f60208201526020815262000b72565b6200058260405167b490311b504239cf60208201526020815262000b72565b6001600160a01b03169485620005e657620005b160405167482d80bccd65172060208201526020815262000b72565b604051630b0f5aa160e11b815260206004820152600c60248201526b1cd8dc941c9a58d95199595960a21b6044820152606490fd5b6200060560405167da5b1b3f1f408f9260208201526020815262000b72565b6200062460405167ac4fc27459ed0d9860208201526020815262000b72565b6200064360405167f2af338a424d23f360208201526020815262000b72565b6001600160a01b031698896200069e57620006726040516719975fa1b155e57a60208201526020815262000b72565b6064604051630b0f5aa160e11b81526020600482015260046024820152631d5cd91d60e21b6044820152fd5b620006bd604051670cb67a63b93e3d7860208201526020815262000b72565b620006dc6040516735cbff3e24d3f9bf60208201526020815262000b72565b620006fb604051678facd2d77698f4b060208201526020815262000b72565b6001600160a01b0316958662000756576200072a604051673995a251a9473bca60208201526020815262000b72565b6064604051630b0f5aa160e11b81526020600482015260046024820152637573646360e01b6044820152fd5b6200077560405167bf4818e475e56b8160208201526020815262000b72565b6200079460405167d563ed4a1c74858b60208201526020815262000b72565b620007b3604051671bafef8fac6bb49660208201526020815262000b72565b6001600160a01b031696876200080e57620007e260405167ab6fb3ab4c3646a060208201526020815262000b72565b6064604051630b0f5aa160e11b81526020600482015260046024820152637762746360e01b6044820152fd5b6200082d60405167e4415e3b0c3ee30760208201526020815262000b72565b6200084c6040516775524c350b65334a60208201526020815262000b72565b6200086b604051673c9a57fd5bda1f7560208201526020815262000b72565b6001600160a01b03169788620008c6576200089a60405167d3e1394e4d91995960208201526020815262000b72565b604051630b0f5aa160e11b815260206004820152600360248201526239b1b960e91b6044820152606490fd5b620008e5604051674d951ed19c838db660208201526020815262000b72565b62000904604051679b7323e431fa859960208201526020815262000b72565b8060805262000927604051677c3a14345961def160208201526020815262000b72565b60a0526200094960405167ff51c50fd8e6488960208201526020815262000b72565b60c0526200096b604051679d0b02071d83415660208201526020815262000b72565b60e0526200098d604051676914b7cfba41663d60208201526020815262000b72565b8752620009ae604051675be4347e15cdb3ba60208201526020815262000b72565b61012052620009d160405167495852e009f3975460208201526020815262000b72565b61014052620009f460405167416f4b4b5e40080d60208201526020815262000b72565b61016093845262000a196040516710fe921ee096843d60208201526020815262000b72565b61018090815262000a3e60405167bd9a1ea442c5725b60208201526020815262000b72565b6101a091825262000a6360405167ca0189d577389c9c60208201526020815262000b72565b6101c0928352604051936165d4958662000ba4873960805186818161064901526163f8015260a05186818161371c01526150de015260c051868181611de30152614e55015260e051868181611e5601526149d3015251858181611ec80152614c17015261012051858181611f3a0152614732015261014051858181611fad0152615213015251848181610e2001528181613b020152613eed015251838181612ceb015281816139100152613e710152518281816124930152818161395401526141e6015251818181611caf01528181612e09015261437c0152f35b604051631e4fbdf760e01b815260006004820152602490fd5b600080fd5b634e487b7160e01b600052604160045260246000fd5b604081019081106001600160401b0382111762000b5c57604052565b51906001600160a01b038216820362000b575756fe60806040818152600491823610156103da575b50361561001e57600080fd5b805161003b60209167dd789415702c58c08382015282815261441a565b610055825167c1431028ce12224c8382015282815261441a565b61005d6153cd565b610077825167ec8b262026f8c80f8382015282815261441a565b6100918251674dc8b2434bb56a388382015282815261441a565b6100996153f0565b6100b3825167b646811a96652ad08382015282815261441a565b6100cd82516782b7c48efa71fea98382015282815261441a565b6100e78251676bfabe1e190631a68382015282815261441a565b610101825167f1ee3f43b2b59a6a8382015282815261441a565b61011b82516724743fd71a290df48382015282815261441a565b60075434106103995761013e825167e853f477ae2357f08382015282815261441a565b610158825167cecbd25702166bf28382015282815261441a565b610172825167ce56c3d4f1e18c7d8382015282815261441a565b3361019f576101929082519067db59c51fcbcb3b7281830152815261441a565b51631559b7d760e21b8152fd5b7faaaebeba3810b1e6b70781f14b2d72c1cb89c0b2b320c43bb67ff79f562f5ff492506101dc82516775dfc1f7eb6367c98382015282815261441a565b6101f6825167596543c2fa08cc878382015282815261441a565b610210825167a911451b5bd9bd408382015282815261441a565b60008051602061655f83398151915261022834614df0565b926102438151674ecf65fd9ce66a1e8582015284815261441a565b61025d8151673cfe73bb60946f058582015284815261441a565b61036561026985615077565b9361028483516787504322c13fe50f8382015282815261441a565b61029e83516718e769ccef26f31f8382015282815261441a565b6102a6614dd1565b506102af615f3b565b6102c9835167926a08e8cbe6e5808382015282815261441a565b6102e383516747aec32a14e7dc358382015282815261441a565b6102ed853361631d565b61030783516779ad3b0fb57ad38c8382015282815261441a565b610321835167aa2c6e6c8ba101538382015282815261441a565b61033485873461032f614dd1565b616486565b61034e8351674b5ea5c80a949bd08382015282815261441a565b82519067a9cc6a365fa3ae3681830152815261441a565b6208aa8960eb1b81515251806103903395339534846040919493926060820195825260208201520152565b0390a460018055005b905162461bcd60e51b815291820152601d60248201527f49434f3a2045544820616d6f756e742062656c6f77206d696e696d756d0000006044820152606490fd5b600090813560e01c90816304ab8697146143e3575080630a54d39d1461424d5780630cf27ca5146140b757806310a44b171461408e578063256f696414613f1c5780632f48ab7d14613ed857806330d3461d14613d4257806332d71a3a14613b695780633699ba47146139835780633cdc53891461393f5780633e413bee146138fb5780633f4ba83a146137b257806340c677c21461379357806345aedf3c146137745780634d35a1d91461374b57806355a373d61461370757806357f47052146134255780635a4ada3e14612ed85780635c975abb14612eb457806363b2011714612e9557806365666dfd14612e7657806367de790614612e57578063688c90ca14612e385780636c6f454214612df457806370fe612014612dcb578063715018a614612d7157806371aa60fd14612d52578063781fc62314612afe57806379baa1a214612ae05780637a95df4d146127565780638070c8fb146124fa57806382b2b351146122a65780638456cb591461216d578063852d0d6e14611d5d5780638da5cb5b14611d355780638ef8aaa514611d1657806390411ae214611ac257806395ccea671461166b5780639857557c1461164c5780639ac108c1146116115780639c987de4146115eb5780639eaa1b09146115ce578063a0ef91df146112e8578063b13d1c30146112c9578063c4aa7395146112aa578063c7e42b1b14610e8e578063ca7fe9d514610c83578063d0de40db146108e3578063d6913b32146108c6578063d9794f16146108a2578063e229cd7614610885578063ed51cd9014610707578063f2fde38b1461067c5763fc0c546a03610012579034610678578160031936011261067857517f00000000000000000000000000000000000000000000000000000000000000006001600160a01b03168152602090f35b5080fd5b50913461070357602036600319011261070357610697614571565b906106a06158ae565b6001600160a01b039182169283156106ed57505082546001600160a01b0319811683178455167f8be0079c531659141344cd1fd0a4f28419497f9722a3daafe3b4186f6b6457e08380a380f35b51631e4fbdf760e01b8152908101849052602490fd5b8280fd5b5082903461088257602092836003193601126106785782359061073a8151679118d98d5fc662e08782015286815261441a565b6107426158ae565b61075c815167137eb000b90a77118782015286815261441a565b6107768151678ce5e8eb5240e6a28782015286815261441a565b610790815167461819b91cd59ddd8782015286815261441a565b6107aa81516768b3666b3915b7718782015286815261441a565b6107d092838311156107ea57506107d460449582519067c94f38ae827a9a4e81830152815261441a565b516311f24f7f60e01b8152928301526024820152fd5b7f0e327decf8cd0c8c1ff089972fca9360ed4f35e93bc2c9c28a9ea0dfb428ea918684846108288151677663e0d4c479b9c18582015284815261441a565b6108428151675cb8a2f77e29b54c8582015284815261441a565b81600355610860815167483fedf6134060188582015284815261441a565b61087a815167535ce8236de787768582015284815261441a565b51908152a180f35b80fd5b509034610678578160031936011261067857602090516107d08152f35b5090346106785781600319360112610678576020905168015af1d78b58c400008152f35b50903461067857816003193601126106785760209051610e108152f35b508234610678576108f336614523565b929190935084519361091660209567f8c15ba28b2f4c348782015286815261441a565b6109308651675e138cb03c533a438782015286815261441a565b61094a8651672a1eeefaad7ed8b38782015286815261441a565b61095536828461448a565b858151910120610963614dd1565b805190870120036109dc575050506109ae9061098f84516793740673911fd49b8582015284815261441a565b6109a984516726572e0ee275d0318582015284815261441a565b614df0565b6109c88351677d9c6eb22e6da5ba8482015283815261441a565b6109d181615077565b918351928352820152f35b6109f6865167fee52ee329e91c6e8782015286815261441a565b610a10865167af5d720da48fe0bb8782015286815261441a565b610a1b36828461448a565b858151910120610a2961494e565b80519087012003610a7957505050610a7490610a558451676f9474a07edc44648582015284815261441a565b610a6f845167731345c3acda64ba8582015284815261441a565b61496e565b6109ae565b610a93865167708f6ae0b78e53c08782015286815261441a565b610aad865167f28789d60337d1518782015286815261441a565b610ab836828461448a565b858151910120610ac66145c6565b80519087012003610b1157505050610a7490610af2845167c4f9a95aa552fa858582015284815261441a565b610b0c845167d5ba7ff8d54ec6e78582015284815261441a565b614bb2565b610b2b8651676d556c2f0c6ceeb68782015286815261441a565b610b45865167a4b5919df4b5e0778782015286815261441a565b610b5036828461448a565b858151910120610b5e6145a6565b80519087012003610ba957505050610a7490610b8a84516794fb58cac2458e0c8582015284815261441a565b610ba484516798384dffd34bb3c58582015284815261441a565b6146cd565b90610be991610bc887516783cedbd69851d8ad8882015287815261441a565b610be2875167d95d9f709e0998568882015287815261441a565b369161448a565b838151910120610bf7614587565b80519085012003610c405750610a7490610c218451670caa7b7f993697598582015284815261441a565b610c3b8451675ee1d59bcef9c7ad8582015284815261441a565b6151ae565b83610c7684610c5f835167634fd60d359457fd8382015282815261441a565b82519067f63a033478470a7681830152815261441a565b5163323521e760e21b8152fd5b50903461067857610c93366143ff565b9190815194610cb360209667badfc7583af728c78882015287815261441a565b610cbb6153cd565b610cd5835167b59eceeb106cb3558882015287815261441a565b610cef8351676c8561b7cf4012968882015287815261441a565b610cf76153f0565b610d118351675a7012c7e82a4b9c8882015287815261441a565b610d2b835167a7094f83704db89d8882015287815261441a565b610d458351672515a742b14116bc8882015287815261441a565b610d5f835167f467bc20076efc528882015287815261441a565b610d79835167ce99349323e168978882015287815261441a565b6008548210610e4b5750610e13610e449495610da584516742a045ac9c650e688382015282815261441a565b610dbf84516728a0d8a8f2edacd78382015282815261441a565b610dd9845167f67f503e41bd13418382015282815261441a565b610de28361496e565b93610dfd8151672e24d38bbe29a1a58482015283815261441a565b519067bb59207d0c4b6c6281830152815261441a565b610e1b61494e565b9133917f0000000000000000000000000000000000000000000000000000000000000000615802565b6001805580f35b825162461bcd60e51b8152908101869052601e60248201527f49434f3a205553445420616d6f756e742062656c6f77206d696e696d756d00006044820152606490fd5b50919034610703576020928360031936011261088257610eac614571565b90610ec78351671246fc58307f4bef8782015286815261441a565b610ecf6158ae565b610ee98351679d67a6e4c7402d578782015286815261441a565b610f038351670726e564360fdcaa8782015286815261441a565b610f0b6153cd565b610f25835167167b63723ed167288782015286815261441a565b610f3f835167b8684f18c9efae228782015286815261441a565b610f59835167699df2a3c96409ac8782015286815261441a565b610f7383516794e3555de6ebabc98782015286815261441a565b6001600160a01b039182169182610fd957505050610fa5610fd59382519067b1b3edc71e0f9edd81830152815261441a565b51918291630b0f5aa160e11b835282016060906020815260056020820152643a37b5b2b760d91b60408201520190565b0390fd5b610ff58493945167ba9f1d34aeecd0b48882015287815261441a565b61100f8351676337d69fcac3cf8c8882015287815261441a565b611029835167b7190e58d7096d438882015287815261441a565b61104383516741c34be574fd26258882015287815261441a565b61105d835167889bf93e9384e3108882015287815261441a565b82516370a0823160e01b81523086820152908682602481885afa9182156112a0578392611271575b506110a0845167e1f4f854ecc77db18982015288815261441a565b6110ba8451671e0f1559afecc68e8982015288815261441a565b816110f0575050506110df60249482519067df15f5d44260d3a181830152815261441a565b51630537a17760e51b815291820152fd5b61110f8496979593945167bfbf4b286eadb1d08782015286815261441a565b611129865167e714d2cf5c92ad408782015286815261441a565b6111438651672ffe8f023ba87bb18782015286815261441a565b8354865163a9059cbb60e01b81529082166001600160a01b031688820190815260208101849052869082908190604001038188885af190811561126757859161123a575b506111b65786866111a987825190677005ce7616c3723a81830152815261441a565b5163022e258160e11b8152fd5b937fcd43b20ab5058a2a0a057681c9d3754aa8971fe74dacc8b6e4be0a49dae13101918694956111f6865167c935faa8643d29688582015284815261441a565b6112108651679cb9cc351c359aea8582015284815261441a565b61122a86516712279a729639f85c8582015284815261441a565b8654169451908152a36001805580f35b61125a9150863d8811611260575b611252818361444c565b810190615196565b38611187565b503d611248565b87513d87823e3d90fd5b9091508681813d8311611299575b611289818361444c565b8101031261070357519038611085565b503d61127f565b84513d85823e3d90fd5b5090346106785781600319360112610678576020906003549051908152f35b509034610678578160031936011261067857602090600a549051908152f35b503461088257806003193601126108825781519061131760209267f7a6ac1907f59c9b8482015283815261441a565b61131f6158ae565b611339835167328dce8199f99f0e8482015283815261441a565b6113538351678bafe68cdb9fddea8482015283815261441a565b61135b6153cd565b61137583516752378d2ed1f7424c8482015283815261441a565b61138f8351674b6fe7846cf6f5138482015283815261441a565b6113a983516794f5cd106b0e3c728482015283815261441a565b6113c383516793c60478b1fbad3d8482015283815261441a565b476113de8451675e46f2e9d6273fdd8582015284815261441a565b6113f8845167b8fdb89c83f5059c8582015284815261441a565b8061142757505061141a90825190672e96808b9b0b066581830152815261441a565b516361cc654560e01b8152fd5b9093611443845167d3a9338766d0b3fa8582015284815261441a565b61145d8451672858343bd6bd52248582015284815261441a565b61147784516763bbcfb524b6e85f8582015284815261441a565b60018060a01b03908580808086868254165af13d156115c9573d61149a8161446e565b906114a78851928361444c565b815287863d92013e5b6114ca8651674fe7c5030487631d8782015286815261441a565b6114e4865167f8646ee2f8da37268782015286815261441a565b6114fe865167b5a4d24e4361306f8782015286815261441a565b156115865750907f8455ae6be5d92f1df1c3c1484388e247a36c7e60d72055ae216dbc258f257d4b9291611542855167b404d9538f7e4a5f8582015284815261441a565b61155c855167b39f9fc349aa37b58582015284815261441a565b611576855167d11fb16efdf1d7f38582015284815261441a565b8554169351908152a26001805580f35b845162461bcd60e51b8152908101849052601a60248201527f49434f3a20455448207769746864726177616c206661696c65640000000000006044820152606490fd5b6114b0565b509034610678578160031936011261067857602090516127108152f35b5034610882576020366003190112610882575061160a602092356151ae565b9051908152f35b5090346106785760209061163a82611628366144c1565b81845193828580945193849201614500565b81016005815203019020549051908152f35b5090346106785781600319360112610678576020906007549051908152f35b5034610882578160031936011261088257611684614571565b6024358351926116a560209467dba8c1d87fb57cdb8682015285815261441a565b6116ad6158ae565b6116c785516744bb24cc476072ed8682015285815261441a565b6116e1855167bbb6ac1934f6cdee8682015285815261441a565b6116e96153cd565b61170385516758eaf6359f5a6ac08682015285815261441a565b61171d8551678a754d95a03e26038682015285815261441a565b6117378551670471d089be6ab8fa8682015285815261441a565b611751855167219ad0e5fa9b3b088682015285815261441a565b6001600160a01b03928316908161178257610fd58787610fa5888251906724746faa4fae598a81830152815261441a565b61179c865167bf7d107af2c11ffc8782015286815261441a565b6117b686516797fcff955c5fec6d8782015286815261441a565b6117d08651677ca0a459e4eb63528782015286815261441a565b826117ff5786866117f2878251906754de446a77a70c8881830152815261441a565b5163162908e360e11b8152fd5b9486949561181d825167da9983832b3501728982015288815261441a565b61183782516707ca0e26b483f6468982015288815261441a565b6118518251677aba89e97e1ec79c8982015288815261441a565b61186b8251675af4cf14772163748982015288815261441a565b61188582516741ae742bba1992218982015288815261441a565b61189f825167507a7357844e6a328982015288815261441a565b81516370a0823160e01b81523087820152948786602481875afa958615611ab8578296611a89575b506118e28351673fc4caa1c766d1148a82015289815261441a565b6118fc835167c2aad265a29460da8a82015289815261441a565b8486101561193e57505061192360649682519067c7ce2d9eeb87a0ac81830152815261441a565b5163db42144d60e01b81529384015260248301526044820152fd5b928694839461195e8a955167b3fa976d096a90b78782015286815261441a565b611978865167655e82d8942898198782015286815261441a565b61199286516760bd89fa8f74044d8782015286815261441a565b8354865163a9059cbb60e01b81529082166001600160a01b031688820190815260208101849052869082908190604001038188885af1908115611267578591611a6c575b506119f85786866111a987825190676d59a7e518ef99d081830152815261441a565b937f1b68594d1cad3f3a6f2758adeee87aae10a3d1e4b1dd5139904187e6f111a38291869495611a38865167280ff6a4ac686a1f8582015284815261441a565b611a52865167079aadd0dd0193068582015284815261441a565b61122a865167aaf0ffddec04cc188582015284815261441a565b611a839150863d881161126057611252818361444c565b886119d6565b9095508781813d8311611ab1575b611aa1818361444c565b81010312610678575194886118c7565b503d611a97565b83513d84823e3d90fd5b509034610678576020928360031936011261070357803590611af48351675e6c13b18f7b81638782015286815261441a565b611b0e8351671b584ab8d9c319de8782015286815261441a565b611b28835167f7dbaf5b26bfe8778782015286815261441a565b611b42835167463afaba95a5a2d58782015286815261441a565b611b4a6153cd565b611b64835167a55c072a4debcaeb8782015286815261441a565b611b7e8351674b9df3711740fa898782015286815261441a565b611b866153f0565b611ba08351677178f390a6131b7c8782015286815261441a565b611bba835167818b78313d825d6e8782015286815261441a565b611bd4835167e40ec3b2643a6c4f8782015286815261441a565b611bee8351679f323ae181047eda8782015286815261441a565b611c088351672daacb91e3aba7448782015286815261441a565b600b548210611cd35750611ca2610e449394611c34845167a58647b1537066088382015282815261441a565b611c4e8451677e51e38c6cbb216e8382015282815261441a565b611c68845167ec0571140e71eb3d8382015282815261441a565b611c71836151ae565b93611c8c81516777cd54469da5a90e8482015283815261441a565b519067e3394f63b3c12ad381830152815261441a565b611caa614587565b9133917f000000000000000000000000000000000000000000000000000000000000000061540e565b825162461bcd60e51b8152908101859052601d60248201527f49434f3a2053435220616d6f756e742062656c6f77206d696e696d756d0000006044820152606490fd5b509034610678578160031936011261067857602090600b549051908152f35b509034610678578160031936011261067857905490516001600160a01b039091168152602090f35b5034610882578060031936011261088257815192611d8c602094670618481469d737ca8682015285815261441a565b611da68351671310f311e30631f88682015285815261441a565b611dc0835167a5cbe479a1abd3b68682015285815261441a565b8251633fabe5a360e21b80825260a095919490916001600160a01b0390878786817f000000000000000000000000000000000000000000000000000000000000000086165afa96871561216357869761213f575b50611e2f8351675ccceaa86ca5e39d8382015282815261441a565b611e49835167104d41feac8e0a398382015282815261441a565b82519184835288838781847f0000000000000000000000000000000000000000000000000000000000000000165afa928315612135578793612111575b50611ea18451677a63d085180e37758482015283815261441a565b611ebb8451673fe4549d7e650cf38482015283815261441a565b83519480865289868881857f0000000000000000000000000000000000000000000000000000000000000000165afa9586156121075788966120e3575b50611f138551673cf7bf4b05d568228582015284815261441a565b611f2d855167544fc22fe517b5cb8582015284815261441a565b8451968188528a888281867f0000000000000000000000000000000000000000000000000000000000000000165afa9788156120d957908b92918a996120b5575b50611f89875167cb2c305427909d7b8782015286815261441a565b611fa38751679c26b1882590c20a8782015286815261441a565b86518094819382527f0000000000000000000000000000000000000000000000000000000000000000165afa9687156120aa5796612076575b50611ff7835167784e86ecf9cda8578382015282815261441a565b612011835167ae4e1b9b9775df378382015282815261441a565b61202b835167f4ce49370b3c01108382015282815261441a565b612045835167eeee6c321b7917768382015282815261441a565b61205f8351672108f8adc3793b918382015282815261441a565b825196875286015284015260608301526080820152f35b612097919650883d8a116120a3575b61208f818361444c565b81019061461e565b50505090509438611fdc565b503d612085565b8451903d90823e3d90fd5b6120cd919950833d85116120a35761208f818361444c565b50505090509738611f6e565b86513d8b823e3d90fd5b6120fb9196508a3d8c116120a35761208f818361444c565b50505090509438611ef8565b85513d8a823e3d90fd5b612129919350893d8b116120a35761208f818361444c565b50505090509138611e86565b84513d89823e3d90fd5b612157919750883d8a116120a35761208f818361444c565b50505090509538611e14565b83513d88823e3d90fd5b5090346106785781600319360112610678578061227e9151906121a160209267769344b5a3dbbc028482015283815261441a565b6121a96158ae565b6121c38151672cc57269c267bbc88482015283815261441a565b6121dd8151678a56dc0c9046d79f8482015283815261441a565b6121f78151671c529963cc7974748482015283815261441a565b61221181516706fb4e6095c605958482015283815261441a565b6122196153f0565b600160ff1960025416176002557f62e78cea01bee320cd4e420270b5ea74000d11b0c9f74754ebdbfc544b05a258828251338152a16122688151671512d8437a1b5aee8482015283815261441a565b5190675f2c1cd5b0461e3f81830152815261441a565b337f2be4e26aa1afffbb218f07314dba82258787a443be75060941de0a3ac6b43f7d8280a280f35b5090346106785760209283600319360112610703578035906122d88351670207298cf0c7ffc68782015286815261441a565b6122f2835167810f8a2b433115468782015286815261441a565b61230c8351672e483175598c94ce8782015286815261441a565b612326835167d80eea05e3e118f98782015286815261441a565b61232e6153cd565b612348835167a1794b5dac732b7f8782015286815261441a565b61236283516713778de73f2564288782015286815261441a565b61236a6153f0565b6123848351677c37443e50f654f58782015286815261441a565b61239e8351673213ae21531bdf518782015286815261441a565b6123b88351679d8d4f5ada1833588782015286815261441a565b6123d2835167311c20d0c890ecc48782015286815261441a565b6123ec8351678b4f0af559b316148782015286815261441a565b600a5482106124b75750612486610e44939461241884516746f4759c83d36bdb8382015282815261441a565b6124328451678ba372047d6e7db68382015282815261441a565b61244c8451675b40bcc6dadcce9a8382015282815261441a565b612455836146cd565b93612470815167923f7e39ee8a744b8482015283815261441a565b519067f0229c01548a966e81830152815261441a565b61248e6145a6565b9133917f000000000000000000000000000000000000000000000000000000000000000061540e565b825162461bcd60e51b8152908101859052601e60248201527f49434f3a205742544320616d6f756e742062656c6f77206d696e696d756d00006044820152606490fd5b508290346108825780600319360112610882575081519060209182810167af37fac0973ba8eb905282815261252e9061441a565b825167620db48011b716d3838201528281526125499061441a565b8251906208aa8960eb1b9182815260038101600d9052602390205493805184810167b8a346a53a2b729290528481526125819061441a565b83815193631554d11560e21b94858152848101600d90526024809120548451848101670bcd81d786ab24d390528481526125ba9061441a565b84519482635553444360e01b96878152888101600d90522054918151868101675561bc691cd07a6990528681526125f09061441a565b81519380635742544360e01b958681528a8101600d9052205494835188810167f384aae5261e6a5b90528881526126269061441a565b818085519c6229a1a960e91b9d8e815260038101600d905260239020549987518c8101671663385515fa371490528c81526126609061441a565b8751908152600e6003820152602390205487516744338d7fe630b204818e01529b8c529a61268d9061441a565b86519081528c8101600e90522054998d865190808201673e9c65dedfa71161905281526126b99061441a565b85519081528b8101600e905220549984518d810167fdb66474885689ce90528d81526126e49061441a565b84519182528101600e905220549882518b810167c2ad7cc3dc4f1ae590528b815261270e9061441a565b8251908152600e6003820152602390205482519b8c52998b01528901526060880152608087015260a086015260c085015260e084015261010083015261012082015261014090f35b50816003193601126108825761276a614571565b9082519161278960209367c1431028ce12224c8582015284815261441a565b6127916153cd565b6127ab845167ec8b262026f8c80f8582015284815261441a565b6127c58451674dc8b2434bb56a388582015284815261441a565b6127cd6153f0565b6127e7845167b646811a96652ad08582015284815261441a565b61280184516782b7c48efa71fea98582015284815261441a565b61281b8451676bfabe1e190631a68582015284815261441a565b612835845167f1ee3f43b2b59a6a8582015284815261441a565b61284f84516724743fd71a290df48582015284815261441a565b6007543410612a9d57612872845167e853f477ae2357f08582015284815261441a565b61288c845167cecbd25702166bf28582015284815261441a565b6128a6845167ce56c3d4f1e18c7d8582015284815261441a565b6001600160a01b03811690816128d4575050506101929082519067db59c51fcbcb3b7281830152815261441a565b60008051602061655f833981519152612a937faaaebeba3810b1e6b70781f14b2d72c1cb89c0b2b320c43bb67ff79f562f5ff494958761292481516775dfc1f7eb6367c98482015283815261441a565b61293e815167596543c2fa08cc878482015283815261441a565b612958815167a911451b5bd9bd408482015283815261441a565b612a6b61296434614df0565b9261297f8351674ecf65fd9ce66a1e8382015282815261441a565b6129998351673cfe73bb60946f058382015282815261441a565b612a296129a585615077565b80986129c186516787504322c13fe50f8682015285815261441a565b6129db86516718e769ccef26f31f8682015285815261441a565b6129f033602435846129eb614dd1565b616078565b612a0a865167926a08e8cbe6e5808682015285815261441a565b612a2486516747aec32a14e7dc358682015285815261441a565b61631d565b612a4383516779ad3b0fb57ad38c8382015282815261441a565b612a5d835167aa2c6e6c8ba101538382015282815261441a565b61033487853461032f614dd1565b6208aa8960eb1b81515251918291339534846040919493926060820195825260208201520152565b0390a46001805580f35b835162461bcd60e51b8152808601849052601d60248201527f49434f3a2045544820616d6f756e742062656c6f77206d696e696d756d0000006044820152606490fd5b50913461070357826003193601126107035760209250549051908152f35b509034610678576020928360031936011261070357803590612b308351671087df21fd5a001e8782015286815261441a565b612b4a8351676b4e9c305296543f8782015286815261441a565b612b648351674fb5d0c55877a4a08782015286815261441a565b612b7e8351678fad58370ff1287b8782015286815261441a565b612b866153cd565b612ba0835167b7e752de88e2a70f8782015286815261441a565b612bba835167a7cb8f9cb58a79588782015286815261441a565b612bc26153f0565b612bdc83516748b655a606d32ac88782015286815261441a565b612bf6835167c22b16f0f5d2e5e48782015286815261441a565b612c10835167e2212560b38437358782015286815261441a565b612c2a835167971d55d7ba9744328782015286815261441a565b612c44835167be3400512687a4448782015286815261441a565b6009548210612d0f5750612cde610e449394612c708451672f471cbe5590be6b8382015282815261441a565b612c8a845167a6e4c230ed604c828382015282815261441a565b612ca4845167dbfe5161950745e58382015282815261441a565b612cad83614bb2565b93612cc88151672a512fc23044d3878482015283815261441a565b51906772343a8f6d9f74df81830152815261441a565b612ce66145c6565b9133917f000000000000000000000000000000000000000000000000000000000000000061540e565b825162461bcd60e51b8152908101859052601e60248201527f49434f3a205553444320616d6f756e742062656c6f77206d696e696d756d00006044820152606490fd5b5034610882576020366003190112610882575061160a60209235615077565b5034610882578060031936011261088257612d8a6158ae565b80546001600160a01b03198116825581906001600160a01b03167f8be0079c531659141344cd1fd0a4f28419497f9722a3daafe3b4186f6b6457e08280a380f35b50903461067857602090612de282611628366144c1565b8101600d815203019020549051908152f35b509034610678578160031936011261067857517f00000000000000000000000000000000000000000000000000000000000000006001600160a01b03168152602090f35b5090346106785781600319360112610678576020906009549051908152f35b5034610882576020366003190112610882575061160a60209235614df0565b5034610882576020366003190112610882575061160a60209235614bb2565b509034610678578160031936011261067857602090600c549051908152f35b50903461067857816003193601126106785760209060ff6002541690519015158152f35b5091346107035760a0366003190112610703578035602435916044356064359060843594865194612f1a602096674fa648b1c9458a4a8882015287815261441a565b612f226158ae565b612f3c88516715c2ee813b973d778882015287815261441a565b612f568851678e4a6b1c04a24b7e8882015287815261441a565b612f70885167420ae3733a7ebd7e8882015287815261441a565b612f8a885167aea7ba0aa1eb8bff8882015287815261441a565b801561340657608060008051602061657f83398151915291612fbc8a5167232c1a154b4a66538a82015289815261441a565b612fd68a5167dfc516b720df0b388a82015289815261441a565b80600755612ff48a51670dfc841ca8e1bc5b8a82015289815261441a565b61300e8a51671b613e5c5199f8888a82015289815261441a565b8951908a825260038b8301526208aa8960eb1b606083015288820152a15b613046875167f4d6fb920a2ed6468782015286815261441a565b6130608751679162b49ca4e8a95c8782015286815261441a565b80156133e657608060008051602061657f833981519152916130928951673e77d239a72a84d88982015288815261441a565b6130ac895167be8bb39e2f30b22c8982015288815261441a565b806008556130ca895167d1a7778a87ce29218982015288815261441a565b6130e4895167d0104ea02074ca1d8982015288815261441a565b885190898252868a830152631554d11560e21b606083015287820152a15b61311c8651679fe01144045c7ff08682015285815261441a565b613136865167383197da2b80d7498682015285815261441a565b80156133c657608060008051602061657f8339815191529161316888516796d985a12a81053c8882015287815261441a565b61318288516714b01da0173351b78882015287815261441a565b806009556131a08851679af52eb3724abc4c8882015287815261441a565b6131ba885167cf3618fc1b911c3b8882015287815261441a565b8751908882528589830152635553444360e01b606083015286820152a15b6131f2855167da0a688c4fd44c228582015284815261441a565b61320c855167d548b659e7df18198582015284815261441a565b80156133a55760008051602061657f8339815191529160809161323f875167b4d0598a22f1dec68782015286815261441a565b6132598751674ef01782ac67dc398782015286815261441a565b80600a5561327787516718a7ce57b8414ec48782015286815261441a565b613291875167e084f29ec396f90c8782015286815261441a565b86519187835287830152635742544360e01b606083015284820152a15b6132c88351674a4fcc6693f72d558382015282815261441a565b6132e2835167bc16152fa0f163f28382015282815261441a565b8115613386579160809160008051602061657f83398151915293613316835167576b69f16d9cc5408382015282815261441a565b613330835167386586d58ade7eae8382015282815261441a565b81600b5561334e8351674dba3dc38481011e8382015282815261441a565b6133688351678502edfd4f4de18e8382015282815261441a565b60038351938085528401526229a1a960e91b6060840152820152a180f35b90506133a291519067e91950973fca7e1481830152815261441a565b80f35b50506133c1835167bbe2307c32a3aff98382015282815261441a565b6132ae565b506133e18551678b183d080821024c8582015284815261441a565b6131d8565b50613401865167ded7d8f744fdb6c78682015285815261441a565b613102565b50613420875166b422b026407d4e8782015286815261441a565b61302c565b50602090816003193601126108825761343c614571565b613456845167061e82e7223bc8e58582015284815261441a565b613470845167710fa01a7ff9787e8582015284815261441a565b61348a8451673e283cd01fe2534e8582015284815261441a565b6134a4845167c1431028ce12224c8582015284815261441a565b6134ac6153cd565b6134c6845167ec8b262026f8c80f8582015284815261441a565b6134e08451674dc8b2434bb56a388582015284815261441a565b6134e86153f0565b613502845167b646811a96652ad08582015284815261441a565b61351c84516782b7c48efa71fea98582015284815261441a565b6135368451676bfabe1e190631a68582015284815261441a565b613550845167f1ee3f43b2b59a6a8582015284815261441a565b61356a84516724743fd71a290df48582015284815261441a565b6007543410612a9d5761358d845167e853f477ae2357f08582015284815261441a565b6135a7845167cecbd25702166bf28582015284815261441a565b6135c1845167ce56c3d4f1e18c7d8582015284815261441a565b6001600160a01b03811690816135ef575050506101929082519067db59c51fcbcb3b7281830152815261441a565b60008051602061655f833981519152612a937faaaebeba3810b1e6b70781f14b2d72c1cb89c0b2b320c43bb67ff79f562f5ff494958761363f81516775dfc1f7eb6367c98482015283815261441a565b613659815167596543c2fa08cc878482015283815261441a565b613673815167a911451b5bd9bd408482015283815261441a565b612a6b61367f34614df0565b9261369a8351674ecf65fd9ce66a1e8382015282815261441a565b6136b48351673cfe73bb60946f058382015282815261441a565b612a296136c085615077565b80986136dc86516787504322c13fe50f8682015285815261441a565b6136f686516718e769ccef26f31f8682015285815261441a565b6136fe614dd1565b506129f0615f3b565b509034610678578160031936011261067857517f00000000000000000000000000000000000000000000000000000000000000006001600160a01b03168152602090f35b5090346106785760209061376282611628366144c1565b81016006815203019020549051908152f35b5034610882576020366003190112610882575061160a6020923561496e565b5034610882576020366003190112610882575061160a602092356146cd565b5090346106785781600319360112610678578051906137e2602092674b8d47806a9692948482015283815261441a565b6137ea6158ae565b613804815167ae80293bd36858598482015283815261441a565b61381e815167412d3a4f343ca6ce8482015283815261441a565b613838815167ffeca9a11af663d68482015283815261441a565b613852815167adaac7910a1fe7858482015283815261441a565b60025460ff8116156138eb576138c393945060ff19166002557f5db9ee0a495bf2e6ff9c91a7834c1ba4fdd244a5e8aa4e537bd38aeae4b073aa828251338152a16138ad81516790dd2e2e672802038482015283815261441a565b519067e253f8e9d5dd32bd81830152815261441a565b337f26adf9cc04d7219c1b1ca4aad3672cc8e066b210d2ee81aeac7ef5e15a0fe85e8280a280f35b8151638dfc202b60e01b81528590fd5b509034610678578160031936011261067857517f00000000000000000000000000000000000000000000000000000000000000006001600160a01b03168152602090f35b509034610678578160031936011261067857517f00000000000000000000000000000000000000000000000000000000000000006001600160a01b03168152602090f35b5090346106785760209283600319360112610703578035906139b5835167a88adc9851706ea68782015286815261441a565b6139cf835167415134bc34e3585b8782015286815261441a565b6139e983516784e3aea75ef189378782015286815261441a565b613a03835167badfc7583af728c78782015286815261441a565b613a0b6153cd565b613a25835167b59eceeb106cb3558782015286815261441a565b613a3f8351676c8561b7cf4012968782015286815261441a565b613a476153f0565b613a618351675a7012c7e82a4b9c8782015286815261441a565b613a7b835167a7094f83704db89d8782015286815261441a565b613a958351672515a742b14116bc8782015286815261441a565b613aaf835167f467bc20076efc528782015286815261441a565b613ac9835167ce99349323e168978782015286815261441a565b6008548210613b265750613af5610e449394610da584516742a045ac9c650e688382015282815261441a565b613afd61494e565b9133917f000000000000000000000000000000000000000000000000000000000000000061540e565b825162461bcd60e51b8152908101859052601e60248201527f49434f3a205553445420616d6f756e742062656c6f77206d696e696d756d00006044820152606490fd5b50913461070357613b7936614523565b93805194613b9860209667830b1ab7bd4ebe988882015287815261441a565b613ba06158ae565b613bba825167dbd6b978dee297528882015287815261441a565b613bd4825167034c2bdf6582e6f38882015287815261441a565b613bee82516712c8c28180fd3f188882015287815261441a565b613c0882516774913f877829ed358882015287815261441a565b80613c4957509081613c2e610fd5949351674742df1ed5fd4f778882015287815261441a565b51948594630c762ac360e21b865285015260248401916145e6565b7f663c357ddc3c9005e66b4b0081ceeda1a6a8da63be465e4fd7e21bf2a2c680459592939450613c89825167481ecbb129d4a3428582015284815261441a565b613ca3825167cb052c7e2d217c658582015284815261441a565b808251858782378481878101600581520301902055613cd28251679e7abb1c05b46df28582015284815261441a565b8151848682378481019060068252848142930301902055613d03825167eab4d2b2e85649c28582015284815261441a565b613d1d8251679b58591145d7b1268582015284815261441a565b613d3382519586956060875260608701916145e6565b9284015242908301520390a180f35b50903461067857613d52366143ff565b9190815194613d72602096678fad58370ff1287b8882015287815261441a565b613d7a6153cd565b613d94835167b7e752de88e2a70f8882015287815261441a565b613dae835167a7cb8f9cb58a79588882015287815261441a565b613db66153f0565b613dd083516748b655a606d32ac88882015287815261441a565b613dea835167c22b16f0f5d2e5e48882015287815261441a565b613e04835167e2212560b38437358882015287815261441a565b613e1e835167971d55d7ba9744328882015287815261441a565b613e38835167be3400512687a4448882015287815261441a565b6009548210613e955750613e64610e449495612c708451672f471cbe5590be6b8382015282815261441a565b613e6c6145c6565b9133917f0000000000000000000000000000000000000000000000000000000000000000615802565b825162461bcd60e51b8152908101869052601e60248201527f49434f3a205553444320616d6f756e742062656c6f77206d696e696d756d00006044820152606490fd5b509034610678578160031936011261067857517f00000000000000000000000000000000000000000000000000000000000000006001600160a01b03168152602090f35b50829034610882576020928360031936011261067857823590613f4f815167bb60a8201e3348928782015286815261441a565b613f576158ae565b613f71815167733329d85ba4bb078782015286815261441a565b613f8b81516785fbab1fa79172bf8782015286815261441a565b613fa5815167a7348678c9efa1678782015286815261441a565b613fbf815167588b1d3be71b822a8782015286815261441a565b6113889283831115613fff5750613fe9604495825190673f093b43a319ccd081830152815261441a565b5163c96aabb960e01b8152928301526024820152fd5b949250817f1df33e370148ab9cf1e12ade589c63d7ac2d70f89d5986672311c0fbd2d240509461403f835167c2fb79acf45ebb238782015286815261441a565b614059835167ea89fc1b0c5773aa8782015286815261441a565b5561407481516727a69affe3a2b34a8582015284815261441a565b61087a8151671f352017a517f55a8582015284815261441a565b509034610678576020906140a582611628366144c1565b8101600e815203019020549051908152f35b509034610678576140c7366143ff565b91908151946140e760209667d80eea05e3e118f98882015287815261441a565b6140ef6153cd565b614109835167a1794b5dac732b7f8882015287815261441a565b61412383516713778de73f2564288882015287815261441a565b61412b6153f0565b6141458351677c37443e50f654f58882015287815261441a565b61415f8351673213ae21531bdf518882015287815261441a565b6141798351679d8d4f5ada1833588882015287815261441a565b614193835167311c20d0c890ecc48882015287815261441a565b6141ad8351678b4f0af559b316148882015287815261441a565b600a54821061420a57506141d9610e44949561241884516746f4759c83d36bdb8382015282815261441a565b6141e16145a6565b9133917f0000000000000000000000000000000000000000000000000000000000000000615802565b825162461bcd60e51b8152908101869052601e60248201527f49434f3a205742544320616d6f756e742062656c6f77206d696e696d756d00006044820152606490fd5b5090346106785761425d366143ff565b919081519461427d60209667463afaba95a5a2d58882015287815261441a565b6142856153cd565b61429f835167a55c072a4debcaeb8882015287815261441a565b6142b98351674b9df3711740fa898882015287815261441a565b6142c16153f0565b6142db8351677178f390a6131b7c8882015287815261441a565b6142f5835167818b78313d825d6e8882015287815261441a565b61430f835167e40ec3b2643a6c4f8882015287815261441a565b6143298351679f323ae181047eda8882015287815261441a565b6143438351672daacb91e3aba7448882015287815261441a565b600b5482106143a0575061436f610e449495611c34845167a58647b1537066088382015282815261441a565b614377614587565b9133917f0000000000000000000000000000000000000000000000000000000000000000615802565b825162461bcd60e51b8152908101869052601d60248201527f49434f3a2053435220616d6f756e742062656c6f77206d696e696d756d0000006044820152606490fd5b9050346106785781600319360112610678576020906008548152f35b6040906003190112614415576004359060243590565b600080fd5b6040810190811067ffffffffffffffff82111761443657604052565b634e487b7160e01b600052604160045260246000fd5b90601f8019910116810190811067ffffffffffffffff82111761443657604052565b67ffffffffffffffff811161443657601f01601f191660200190565b9291926144968261446e565b916144a4604051938461444c565b829481845281830111614415578281602093846000960137010152565b6020600319820112614415576004359067ffffffffffffffff82116144155780602383011215614415578160246144fd9360040135910161448a565b90565b60005b8381106145135750506000910152565b8181015183820152602001614503565b9060406003198301126144155760043567ffffffffffffffff928382116144155780602383011215614415578160040135938411614415576024848301011161441557602401919060243590565b600435906001600160a01b038216820361441557565b604051906145948261441a565b600382526229a1a960e91b6020830152565b604051906145b38261441a565b60048252635742544360e01b6020830152565b604051906145d38261441a565b60048252635553444360e01b6020830152565b908060209392818452848401376000828201840152601f01601f1916010190565b519069ffffffffffffffffffff8216820361441557565b908160a09103126144155761463281614607565b916020820151916040810151916144fd608060608401519301614607565b90816020910312614415575160ff811681036144155790565b8181029291811591840414171561467c57565b634e487b7160e01b600052601160045260246000fd5b9190820391821161467c57565b604d811161467c57600a0a90565b81156146b7570490565b634e487b7160e01b600052601260045260246000fd5b906040918251906146ef60209267ebf8926950ac367c8482015283815261441a565b6147098451673644845bb8b47fbf8482015283815261441a565b614723845167847498e8475e1a778482015283815261441a565b8351633fabe5a360e21b8152937f00000000000000000000000000000000000000000000000000000000000000006001600160a01b0316929060a086600481875afa93841561491257600495966000809660009260009161491d575b50916147dd918694936147a2875167234dd6919152458d8882015287815261441a565b6147bc875167e89b37957291260c8882015287815261441a565b8651926147c88461441a565b600384526242544360e81b878501528a6158ff565b6147f78351670e7940bbe51a47e48482015283815261441a565b61481183516736f6e402db778f4d8482015283815261441a565b825163313ce56760e01b815296879182905afa948515614912576000956148d2575b50916148a460ff94928461485a6148a9965167bfeb293709c79cda8482015283815261441a565b614874815167b778809f27798cd98482015283815261441a565b61488e8151671b49e3b5bf8c07ff8482015283815261441a565b519067b2c802474e27612981830152815261441a565b614669565b91166012036012811161467c576305f5e100916148c86148ce9261469f565b90614669565b0490565b6148a993919550826148ff6148a49260ff97953d841161490b575b6148f7818361444c565b810190614650565b96929450929450614833565b503d6148ed565b50513d6000823e3d90fd5b90506147dd975085939250614941915060a03d60a0116120a35761208f818361444c565b929994955093905061477f565b6040519061495b8261441a565b60048252631554d11560e21b6020830152565b90604091825190614990602092674471a337fa9293988482015283815261441a565b6149aa8451670b454ccf845efac58482015283815261441a565b6149c4845167373e38eb50b3bee18482015283815261441a565b8351633fabe5a360e21b8152937f00000000000000000000000000000000000000000000000000000000000000006001600160a01b0316929060a086600481875afa938415614912576004959660008096600092600091614b81575b5091614a6c91869493614a43875167127949897a51b18f8882015287815261441a565b614a5d875167f567dd03d3a04abd8882015287815261441a565b614a6561494e565b928a6158ff565b614a868351675d75a0443ed55a648482015283815261441a565b614aa0835167f5983bcf3c38a4f28482015283815261441a565b825163313ce56760e01b815296879182905afa94851561491257600095614b51575b50916148a460ff949284614ae9614b3396516758f149542609865e8482015283815261441a565b614b03815167f135e05eae3d0fd98482015283815261441a565b614b1d815167f45570ba513de1738482015283815261441a565b519067c67e7ff73d61fd3781830152815261441a565b91166012036012811161467c57620f4240916148c86148ce9261469f565b614b339391955082614b756148a49260ff97953d841161490b576148f7818361444c565b96929450929450614ac2565b9050614a6c975085939250614ba5915060a03d60a0116120a35761208f818361444c565b9299949550939050614a20565b90604091825190614bd4602092677c47d26e111bee518482015283815261441a565b614bee84516724364004b3730c428482015283815261441a565b614c08845167a8b65324f5f2e5ab8482015283815261441a565b8351633fabe5a360e21b8152937f00000000000000000000000000000000000000000000000000000000000000006001600160a01b0316929060a086600481875afa938415614912576004959660008096600092600091614da0575b5091614ca991869493614c87875167cefe4d7b17216e798882015287815261441a565b614ca18751679f8417d19ae9835d8882015287815261441a565b614a656145c6565b614cc38351674b4bf38924deefb18482015283815261441a565b614cdd8351676c3b750cfe9764ff8482015283815261441a565b825163313ce56760e01b815296879182905afa94851561491257600095614d70575b50916148a460ff949284614d26614b339651675ab2b5f2599e12c88482015283815261441a565b614d40815167d5656a62552d38288482015283815261441a565b614d5a8151673e3f6aa6f2a382d28482015283815261441a565b519067e9f1e984c67ea07181830152815261441a565b614b339391955082614d946148a49260ff97953d841161490b576148f7818361444c565b96929450929450614cff565b9050614ca9975085939250614dc4915060a03d60a0116120a35761208f818361444c565b9299949550939050614c64565b60405190614dde8261441a565b600382526208aa8960eb1b6020830152565b90604091825190614e126020926703c79a98530fe6368482015283815261441a565b614e2c845167c46a6e949b5efee88482015283815261441a565b614e46845167762ae8ed9b4371ae8482015283815261441a565b8351633fabe5a360e21b8152937f00000000000000000000000000000000000000000000000000000000000000006001600160a01b0316929060a086600481875afa938415614912576004959660008096600092600091615046575b5091614ee791869493614ec58751679e9ae51122eb612a8882015287815261441a565b614edf875167ee80025714fc335d8882015287815261441a565b614a65614dd1565b614f0183516722184fd74c1f4ce08482015283815261441a565b614f1b835167f6507aedf48a3ebc8482015283815261441a565b825163313ce56760e01b815296879182905afa94851561491257600095615016575b50916148a460ff949284614f64614ff396516715e4c980713aa0b18482015283815261441a565b614f7e815167cb4660ce4fb0eaa58482015283815261441a565b614f9881516760dbf4c86f2e3dbd8482015283815261441a565b614fb281516753af62ebea27eeb48482015283815261441a565b614fc385614fbe614dd1565b615bad565b614fdd8151671e70ffb9947c5dfe8482015283815261441a565b519067ebe93ef4c596b35081830152815261441a565b91166012036012811161467c57670de0b6b3a7640000916148c86148ce9261469f565b614ff3939195508261503a6148a49260ff97953d841161490b576148f7818361444c565b96929450929450614f3d565b9050614ee797508593925061506a915060a03d60a0116120a35761208f818361444c565b9299949550939050614ea2565b6040805161509660209167f87f1e3e45a75fc58382015282815261441a565b6150b08251670b7e7c87cbdd2a838382015282815261441a565b6150ca8251679ef3debdeba5d4a48382015282815261441a565b815163313ce56760e01b81529080826004817f00000000000000000000000000000000000000000000000000000000000000006001600160a01b03165afa91821561518b576148ce9368015af1d78b58c4000095936148c89360ff9360009261516a575b508261514e615164939451679aab2e484cfaca5b8482015283815261441a565b51906736b68ceda9d8a4ce81830152815261441a565b1661469f565b615164925061518590823d841161490b576148f7818361444c565b9161512e565b83513d6000823e3d90fd5b90816020910312614415575180151581036144155790565b906040918251906151d060209267461b24e2d421a4918482015283815261441a565b6151ea845167032419d31c578d8b8482015283815261441a565b61520484516704125bcaa708110a8482015283815261441a565b8351633fabe5a360e21b8152937f00000000000000000000000000000000000000000000000000000000000000006001600160a01b0316929060a086600481875afa93841561491257600495966000809660009260009161539c575b50916152a591869493615283875167db2e66d35582f1618882015287815261441a565b61529d87516750d8c355f23376d98882015287815261441a565b614a65614587565b6152bf835167e7c0cf38e98decb18482015283815261441a565b6152d98351678ebbc5a576c790118482015283815261441a565b825163313ce56760e01b815296879182905afa9485156149125760009561536c575b50916148a460ff949284615322614ff39651677d5d4862b56f1acf8482015283815261441a565b61533c815167555bd23c8b80033e8482015283815261441a565b615356815167bb5e6cbf927f6bc58482015283815261441a565b519067de3c5159fd4d2e0981830152815261441a565b614ff393919550826153906148a49260ff97953d841161490b576148f7818361444c565b969294509294506152fb565b90506152a59750859392506153c0915060a03d60a0116120a35761208f818361444c565b9299949550939050615260565b6002600154146153de576002600155565b604051633ee5aeb560e01b8152600490fd5b60ff600254166153fc57565b60405163d93c066560e01b8152600490fd5b926064919260409586516154336020916785cbc8bd423727d28382015282815261441a565b61544d8851679b42e3568b5d68748382015282815261441a565b615467885167b2ad08036132ee5f8382015282815261441a565b60008161547385615077565b9861548e8b51675a1b19f7551e3a768482015283815261441a565b6154a88b516796c91bdd97999e768482015283815261441a565b6154c28b5167953b3f638d78e0258482015283815261441a565b6154dc8b5167bdef5cf2d317278c8482015283815261441a565b6154f68b5167e32a7785e9db14998482015283815261441a565b6155108b516764060ba8ed2f521b8482015283815261441a565b61552a8b51674b1ed3f7ce8af46f8482015283815261441a565b6155448b5167dad0d47782ee166a8482015283815261441a565b61555e8b51679a474b706dbaaaaa8482015283815261441a565b6155788b5167234e227acca995398482015283815261441a565b6155928b51674e326d33eb4ab6c88482015283815261441a565b6155ac8b51670e49672c07fce68d8482015283815261441a565b6155c68b51677472465c2b473a248482015283815261441a565b6155e08b5167361142e7f928ff118482015283815261441a565b6155fa8b5167d05b70464edbaf108482015283815261441a565b6156148b516751d69a3a9112564d8482015283815261441a565b61562e8b5167993a2b06354b0efa8482015283815261441a565b8a516323b872dd60e01b8152336004820152306024820152604481018a90526001600160a01b0398909384928391908b165af19081156157f7576000916157da575b5015615797579161576d6157929260008051602061655f8339815191529695946156aa8b5167bfc4f32b5004206b8382015282815261441a565b6156c48b5167133ab2917183c9938382015282815261441a565b6156de8b516702f560c04d9807488382015282815261441a565b6156e88a8761631d565b6157028b5167a82ea21a667ba3598382015282815261441a565b61571c8b5167475e25704d5ff1a18382015282815261441a565b6157288a858b85616486565b6157428b5167700c2f53a87a6a8c8382015282815261441a565b61575c8b51679675e4aaa892b5f28382015282815261441a565b8a5192828480945193849201614500565b8101039020975193849316963396846040919493926060820195825260208201520152565b0390a4565b60649088519062461bcd60e51b82526004820152601a60248201527f49434f3a20546f6b656e207472616e73666572206661696c65640000000000006044820152fd5b6157f19150823d841161126057611252818361444c565b38615670565b89513d6000823e3d90fd5b9493916064929391936158306000604098895190602093826785cbc8bd423727d2868095015283815261441a565b61584a8b51679b42e3568b5d68748482015283815261441a565b6158648b5167b2ad08036132ee5f8482015283815261441a565b6155e061587087615077565b9a61588b8d51675a1b19f7551e3a768682015285815261441a565b6158a58d516796c91bdd97999e768682015285815261441a565b33908c88616078565b6000546001600160a01b031633036158c257565b60405163118cdaa760e01b8152336004820152602490fd5b906020916158f381518092818552858086019101614500565b601f01601f1916010190565b9394919092604093600085519661592760209867e47beeb474a85a788a82015289815261441a565b615941875167a3ea6c9d629f85fc8a82015289815261441a565b61595b875167e7195a8f7243087d8a82015289815261441a565b1361599d578686610fd5876159808151670122fa6a3d00220a8582015284815261441a565b51928392630c762ac360e21b8452600484015260248301906158da565b6159b78551676be6096933357ae38882015287815261441a565b6159d18551670759e88c3ef8aff78882015287815261441a565b6159eb8551671390a8be6b49db2b8882015287815261441a565b80615a2d578686610fd587615a10815167cd70e820fcf431828582015284815261441a565b5192839263d6523dbb60e01b8452600484015260248301906158da565b615a88610e1091615a4e8751678ccd43fc70ed5bae8a82015289815261441a565b615a6887516776fd5560d6aaac9f8a82015289815261441a565b615a82875167c44219e54e98f0db8a82015289815261441a565b42614692565b1115615acc5750505080615aaf610fd59251672d8e524deeb8ae878582015284815261441a565b519283926349a53d5f60e01b8452600484015260248301906158da565b615ae6845167849e61b7847b66628782015286815261441a565b615b0084516794f4802db1531adb8782015286815261441a565b615b1a8451675f6eecc95268e2d68782015286815261441a565b69ffffffffffffffffffff90811691161015615b6c575080615b4f610fd59251679db4909899b8fdcd8582015284815261441a565b51928392632e1b4d4160e01b8452600484015260248301906158da565b925090615b8991519067cf7914f0bea77eac81830152815261441a565b565b615ba3604092959493956060835260608301906158da565b9460208201520152565b91906040805191615bcf60209367e0eae75ea9b0450e8582015284815261441a565b615be9825167b094a15ceea4e5fb8582015284815261441a565b615c0382516762e90b3304bcd86c8582015284815261441a565b815190615c6e848751938181818b0196615c1e81838a614500565b810160058152030190205493615c44865167df70b64c556de5c58482015283815261441a565b615c5e865167748a21ebb05265f98482015283815261441a565b8551809381928b51928391614500565b8101600681520301902054615c93845167f1a13e9023a924fe8782015286815261441a565b615cad84516755e2572d89c6ebd28782015286815261441a565b82159081615f14575b8115615ed1575b5015615d15575050615b89929350615ce581516742bc0e6acdc9ba088482015283815261441a565b615cff815167c4118a98f14454678482015283815261441a565b51906798f2ce9c211ac8f181830152815261441a565b615d3383969594965167923f15e768c0e54d8882015287815261441a565b615d4d835167e7ddf53269fdafbb8882015287815261441a565b615d678351675a1055d18fb6b4788882015287815261441a565b818181118015615ea9575b80615e81575b15615e725790615d8791614692565b905b615da3835167723deafe9209455b8882015287815261441a565b615dbd835167931aa7a0e185749a8882015287815261441a565b6127109182810292818404149015171561467c57615dda916146ad565b93615df5825167902500000eee11188382015282815261441a565b615e0f825167ed5b41f6dcbefe928382015282815261441a565b6004549283861115615e53575090615e3c610fd593928251906763e876ad366d941d81830152815261441a565b5163246fb34560e11b815293849360048501615b8b565b94509150615b8992505190679633eb4da82c232a81830152815261441a565b615e7b91614692565b90615d89565b50508251673e08ea3a41eee5af60c11b87820152868152615ea19061441a565b816001615d78565b50508251675376a193b6dbc36560c01b87820152868152615ec99061441a565b816000615d72565b610e109150615ee09042614692565b101580615eee575b38615cbd565b50825167d747ee740769655f60c01b85820152848152615f0d9061441a565b6001615ee8565b9050615f338451671bd50e2870ccae9760c31b8782015286815261441a565b600190615cb6565b615b896040805190615f5e60209267953b3f638d78e0258482015283815261441a565b615f78815167bdef5cf2d317278c8482015283815261441a565b615f92815167e32a7785e9db14998482015283815261441a565b615fac81516764060ba8ed2f521b8482015283815261441a565b615fc68151674b1ed3f7ce8af46f8482015283815261441a565b615fe0815167dad0d47782ee166a8482015283815261441a565b615ffa8151679a474b706dbaaaaa8482015283815261441a565b616014815167234e227acca995398482015283815261441a565b61602e8151674e326d33eb4ab6c88482015283815261441a565b6160488151670e49672c07fce68d8482015283815261441a565b6160628151677472465c2b473a248482015283815261441a565b519067361142e7f928ff1181830152815261441a565b919260409485519161609b60209367953b3f638d78e0258582015284815261441a565b6160b5875167bdef5cf2d317278c8582015284815261441a565b6160cf875167e32a7785e9db14998582015284815261441a565b85156162f7576160ef875167609c0d1a759818ae8582015284815261441a565b6161098751670fc7d6f0e58a6e098582015284815261441a565b61612387516750817af9bc1747248582015284815261441a565b8584108015616180575050509084616169610fd59361615283516762bad48245d84d1e8382015282815261441a565b8251906798cbbe07065b6dce81830152815261441a565b5163b8dc66e560e01b815293849360048501615b8b565b6161a088969497929398516750933727aa9f29b18982015288815261441a565b6161ba865167d66bcc313985d8628982015288815261441a565b6161d486516715f8713a57aafc398982015288815261441a565b156162d8576161f38551670dcc23615409dce98882015287815261441a565b61620d85516723301baefb758f558882015287815261441a565b616227855167804c32bf22433e838882015287815261441a565b6162318482614692565b936127109485810295818704149015171561467c577f51c74281ca2eb8c8b2d5caaf63f7911daa468d5a072e7f3155c6014f774bfd9495616275836162bd976146ad565b92616290825167ef0c11de42187a768b8201528a815261441a565b6162aa82516722b6a5fd64a8a30d8b8201528a815261441a565b81519687966080885260808801906158da565b9886015284015260608301526001600160a01b0316930390a2565b5050505090615b8991519067914c3c026e7b7a0281830152815261441a565b5094615b899450615fac919350809250516764060ba8ed2f521b8482015283815261441a565b9160409182519361633f602095671bfafc28e15cc40d8782015286815261441a565b616359845167a6f2ac6dc34767678782015286815261441a565b6163738451675f4eb6453fe4c5918782015286815261441a565b816163a357600484616396878251906730142871467e95b881830152815261441a565b5163a776bb4d60e01b8152fd5b909291936163f6906163c58451671b7448f766c1147c8382015282815261441a565b6163df8451674ea3a37f89277a728382015282815261441a565b835190679c4cd01ddf929e5781830152815261441a565b7f00000000000000000000000000000000000000000000000000000000000000006001600160a01b031692833b156144155782516340c10f1960e01b81526001600160a01b039290921660048301526024820152916000908390604490829084905af1801561491257616467575050565b67ffffffffffffffff82116144365752565b9190820180921161467c57565b9261655a92616548929460406164d48151946164b260209666c2a0a3d1ad157a8882015287815261441a565b6164cc835167c174c2b1b64093758882015287815261441a565b600c54616479565b600c556164f1815167d08bd3072ec9a57a8682015285815261441a565b80519261651d83519486818187019761650b81838b614500565b8101600d815203019020918254616479565b9055616539815167f9eb1fe0227bfc7e8682015285815261441a565b51938492839251928391614500565b8101600e815203019020918254616479565b905556fed999e24aeb7bcb8bebf9644b5dcc8d2092df87d8f17de18a80fb5da7a5d0c3b90e2db49575ed8292c793abb5488cdfd104996af8b293876848e8401f1884c6bea26469706673582212208f77abf98bc4e6db28c0157e8a1a60fcf2da4aee5c305fcd3e4c038cf58979c164736f6c63430008160033",
  "linkReferences": {},
  "deployedLinkReferences": {}
}